:020000040000fa
:080000000002040000000000f2
:020000040000fa
:0400080006050000e9
:020000040000fa
:04000c0006050000e5
:020000040000fa
:0400100006050000e1
:020000040000fa
:0400140006050000dd
:020000040000fa
:0400180006050000d9
:020000040000fa
:04001c0006050000d5
:020000040000fa
:0400200006050000d1
:020000040000fa
:0400240006050000cd
:020000040000fa
:0400280006050000c9
:020000040000fa
:04002c0006050000c5
:020000040000fa
:0400300006050000c1
:020000040000fa
:0400340006050000bd
:020000040000fa
:0400380006050000b9
:020000040000fa
:04003c0006050000b5
:020000040000fa
:0400400006050000b1
:020000040000fa
:0400440006050000ad
:020000040000fa
:0400480006050000a9
:020000040000fa
:04004c0006050000a5
:020000040000fa
:04005000c8020000e2
:020000040000fa
:04005400060500009d
:020000040000fa
:040058000605000099
:020000040000fa
:04005c000605000095
:020000040000fa
:040060000605000091
:020000040000fa
:04006400060500008d
:020000040000fa
:040068000605000089
:020000040000fa
:04006c000605000085
:020000040000fa
:040070000605000081
:020000040000fa
:04007400060500007d
:020000040000fa
:040078000605000079
:020000040000fa
:04007c000605000075
:020000040000fa
:040080000605000071
:020000040000fa
:04008400060500006d
:020000040000fa
:040088000605000069
:020000040000fa
:04008c000605000065
:020000040000fa
:040090000605000061
:020000040000fa
:040094001c04000048
:020000040000fa
:040098000605000059
:020000040000fa
:04009c000605000055
:020000040000fa
:0400a0000605000051
:020000040000fa
:0400a400060500004d
:020000040000fa
:0400a8000605000049
:020000040000fa
:0400ac000605000045
:020000040000fa
:0400b0000605000041
:020000040000fa
:0400b400060500003d
:020000040000fa
:0400b8000605000039
:020000040000fa
:0400bc000605000035
:020000040000fa
:0400c0000605000031
:020000040000fa
:0400c400060500002d
:020000040000fa
:0400c8000605000029
:020000040000fa
:0400cc000605000025
:020000040000fa
:0400d0000605000021
:020000040000fa
:0400d400060500001d
:020000040000fa
:0400d8000605000019
:020000040000fa
:0400dc000605000015
:020000040000fa
:0400e0000605000011
:020000040000fa
:0400e400060500000d
:020000040000fa
:0400e8000605000009
:020000040000fa
:0400ec000605000005
:020000040000fa
:0400f0000605000001
:020000040000fa
:0400f40006050000fd
:020000040000fa
:0400f80006050000f9
:020000040000fa
:0400fc0006050000f5
:020000040000fa
:0401000006050000f0
:020000040000fa
:0401040006050000ec
:020000040000fa
:0401080006050000e8
:020000040000fa
:04010c0006050000e4
:020000040000fa
:0401100006050000e0
:020000040000fa
:0401140006050000dc
:020000040000fa
:040118006604000079
:020000040000fa
:04011c0006050000d4
:020000040000fa
:0401200006050000d0
:020000040000fa
:0401240006050000cc
:020000040000fa
:0401280006050000c8
:020000040000fa
:04012c0006050000c4
:020000040000fa
:0401300006050000c0
:020000040000fa
:0401340006050000bc
:020000040000fa
:0401380006050000b8
:020000040000fa
:04013c0006050000b4
:020000040000fa
:0401400006050000b0
:020000040000fa
:0402080006050000e7
:020000040000fa
:04020c0006050000e3
:020000040000fa
:0402100006050000df
:020000040000fa
:0402140006050000db
:020000040000fa
:0402180006050000d7
:020000040000fa
:04021c0006050000d3
:020000040000fa
:0402200006050000cf
:020000040000fa
:0402240006050000cb
:020000040000fa
:0402280006050000c7
:020000040000fa
:04022c0006050000c3
:020000040000fa
:0402300006050000bf
:020000040000fa
:0402340006050000bb
:020000040000fa
:0402380006050000b7
:020000040000fa
:04023c0006050000b3
:020000040000fa
:0402400006050000af
:020000040000fa
:0402440006050000ab
:020000040000fa
:0402480006050000a7
:020000040000fa
:04024c0006050000a3
:020000040000fa
:04025000060500009f
:020000040000fa
:04025400060500009b
:020000040000fa
:040258000605000097
:020000040000fa
:04025c000605000093
:020000040000fa
:04026000060500008f
:020000040000fa
:04026400060500008b
:020000040000fa
:040268000605000087
:020000040000fa
:04026c000605000083
:020000040000fa
:04027000060500007f
:020000040000fa
:04027400060500007b
:020000040000fa
:040278000605000077
:020000040000fa
:04027c000605000073
:020000040000fa
:04028000060500006f
:020000040000fa
:04028400060500006b
:020000040000fa
:040288000605000067
:020000040000fa
:04028c000605000063
:020000040000fa
:04029000060500005f
:020000040000fa
:04029400060500005b
:020000040000fa
:040298000605000057
:020000040000fa
:04029c000605000053
:020000040000fa
:0402a000060500004f
:020000040000fa
:0402a400060500004b
:020000040000fa
:0402a8000605000047
:020000040000fa
:0402ac000605000043
:020000040000fa
:0402b000060500003f
:020000040000fa
:0402b400060500003b
:020000040000fa
:0402b8000605000037
:020000040000fa
:0402bc000605000033
:020000040000fa
:0402c000060500002f
:020000040000fa
:0402c400060500002b
:020000040000fa
:0402c8000605000027
:020000040000fa
:0402cc000605000023
:020000040000fa
:0402d000060500001f
:020000040000fa
:0402d400060500001b
:020000040000fa
:0402d8000605000017
:020000040000fa
:0402dc000605000013
:020000040000fa
:0402e000060500000f
:020000040000fa
:0402e400060500000b
:020000040000fa
:0402e8000605000007
:020000040000fa
:0402ec000605000003
:020000040000fa
:0402f00006050000ff
:020000040000fa
:0402f40006050000fb
:020000040000fa
:0402f80006050000f7
:020000040000fa
:0402fc0006050000f3
:020000040000fa
:0403000006050000ee
:020000040000fa
:0403040006050000ea
:020000040000fa
:0403080006050000e6
:020000040000fa
:04030c0006050000e2
:020000040000fa
:0403100006050000de
:020000040000fa
:0403140006050000da
:020000040000fa
:0403180006050000d6
:020000040000fa
:04031c0006050000d2
:020000040000fa
:0403200006050000ce
:020000040000fa
:0403240006050000ca
:020000040000fa
:0403280006050000c6
:020000040000fa
:04032c0006050000c2
:020000040000fa
:0403300006050000be
:020000040000fa
:0403340006050000ba
:020000040000fa
:0403380006050000b6
:020000040000fa
:04033c0006050000b2
:020000040000fa
:0403400006050000ae
:020000040000fa
:100400004f0121000e3f24000e0188000000000073
:10041000000020000000e000020032000001200087
:100420002002880014000700c30307000000e0005a
:1004300003003a0020c8210001002000020037001c
:100440000000200001002000810f70000100320038
:1004500014000700000020000000e000020032004d
:100460000000020000000000681902000000000007
:100470000040da000000fe004440a9000000200017
:100480000000e0000300320000002000a00188000e
:100490004440a800000006008a1f78008b1f7800e7
:1004a0000000060091018800800478000000eb0045
:1004b0001a003700e284440032a0b4009905ba0063
:1004c000e284440032a0b4009906ba00e2844400f9
:1004d00032a0b4000006eb00476fde00fd07b2005b
:1004e000636ce10003003a00ebff07000000eb0043
:1004f0000a003700606ce10004003a00005deb0088
:100500008b05e900fdff3e00040037006168e10053
:10051000010032000086eb000b00070019c7ba008b
:100520001905ba000e04e00003003a000a00e000da
:10053000e0ff3a0000000600fe07b2009e018800be
:100540008a047800f5ff3700395dba008b05e900b1
:100550000c003200295dba008b05e900080032006a
:100560000c00e00003003a00e284440032a0b40032
:10057000f5ff370019ddba008b05e900faff3a00f4
:100580008904e800e184440032a0b40000000600c1
:10059000809fbe00829fbe000200fa008540a90035
:1005a00030408000a0009000000220000080600029
:1005b0000000e0006d0032003040800041128000f9
:1005c000110098003040800020009000670f60000c
:1005d0001e007800e30f50002b003200e30f5000a4
:1005e00007003c00e10f500015003200e10f500001
:1005f0001c003c000000e000080032008a003700c8
:10060000e50f500034003200e50f50002e00350099
:10061000e60f500041003200830037003040800078
:10062000604890000000fb004012880030408000cd
:10063000a00090008100e800210098007a003700b7
:1006400030408000504890000000fb0040128800bd
:1006500030408000a00090008100e8002100980058
:100660007100370030408000404890000000fb00df
:100670004012880030408000a00090008100e80017
:100680002100980068003700304080009001780019
:1006900030408000c00090000101780002814100dc
:1006a000124178000201fb00421288008100e8003c
:1006b0004100980030408000a00090008100e800d8
:1006c0002100980058003700ca42a8001421ef000a
:1006d0001fe1a800540037003040800090017800ee
:1006e00030408000c000900001017800028141008c
:1006f000124178000201fb00421288008100e800ec
:100700004100980030408000a00090008100e90086
:10071000210098000000000043003700ca42a800f2
:10072000304080008000eb003100980030408000b5
:100730008000eb0041009800304080003140800094
:100740002101900081ff2f008100610021009800ad
:10075000304080003140800021019000f1fd2f00e9
:1007600081006100210098002f0037003040800098
:1007700020009000700060000000e00022003200c5
:1007800030408000d0009000304080004000900059
:1007900000804000411280008140780001487800cc
:1007a00030408000c00090008100e80041009800c7
:1007b00030408000c0009000304080003000900049
:1007c000808f500002003d004822ef0016003700e5
:1007d000304080003140800021019000f1fe2f0068
:1007e0008100610021009800304080008000eb0013
:1007f00031009800304080008000eb0041009800fc
:10080000ca42a80008003700304080003140800014
:10081000a10090000130a00021009800304080002d
:1008200041128000110098000080fa004f01be00c4
:100830004f00be0000400600809fbe00821f78006f
:100840000000fa008760a9001fe1a9003040800085
:10085000c00090003040800030009000808f500039
:100860000f003500ca42a900400020004012880055
:1008700030408000314080002101900081ff2f0036
:1008800081006100210098003040800031408000ec
:10089000a1009000e680400021009800070037008a
:1008a000ca42a900f00a20004012880030408000af
:1008b000a00090008100e800210098000080fa006c
:1008c0004f0178004f00be0000400600809fbe0030
:1008d000821f78000000fa008b80a9004040800051
:1008e000f000900040408000400090000000400078
:1008f00000804000811480000108780040408000a2
:1009000080089000404080004000900000004000bf
:100910000080400010007800c01488004040800033
:10092000c00090008100e800410098004040800035
:10093000c00090004040800050009000808f500028
:100940002e003a0040408000414080009108900015
:100950000120a2001108980040408000100890007b
:10096000640060000000e0000900320040408000a8
:10097000414080009100900071009800404080004c
:1009800041408000b1009000010898000800370045
:100990004040800041408000910078007100980044
:1009a0004040800041408000a10090000108980074
:1009b000404080008000eb004100980040408000f3
:1009c00041408000e10090005100980040408000cc
:1009d0004140800011099000e1ff2f00810061007b
:1009e00011089800404080004140800011099000ab
:1009f000d1ff2f0081006100110898000080fa00eb
:100a00004f0178004f00be00004006000040da00b1
:100a10000000fe00ec874700889fbe008a9fbe0052
:100a20008c9fbe008e1f780000077800c1b79f0022
:100a30000e00e900cf80de00360307000001be0093
:100a4000b0fd2000910c2400a402070080bf9f008d
:100a5000f1b79f000e00e000330034008000780002
:100a60007fb0970001017800800178000002be008d
:100a7000050078008400780031020700e0b79f008d
:100a8000d1b79f00cfb497000004eb006140b900dc
:100a9000200307000005be008fb897007fb09700c5
:100aa00001017800800178000a00be007903070088
:100ab000880207000006be00efb097005fb0970005
:100ac00001017800800178000a00be007103070070
:100ad000800207000005be000200200003f02b008a
:100ae0000c00be006b030700d2a3200073ed2300af
:100af000130207000006be00a2702d0033da2300a7
:100b00000a00be00630307000001be000c00be0027
:100b10000b02070031010700801c78000804e80080
:100b2000880f5700d9ff3c004fb097004f0778005f
:100b30004f06be004f05be004f04be00cf00b100ff
:100b400000000600f6874700889fbe008a9fbe000f
:100b50008c9fbe008e1f7800f1af9f00820478004a
:100b6000180020000040dd004f04de0000004400bb
:100b70000084d1000000200001f8230017010700c5
:100b8000ffa89700800878000000eb009000980014
:100b90006140b900df0207000001be00b0fd200087
:100ba000910424004d0207008005780001057800bb
:100bb0000b0078008a00780046020700b0b79f005b
:100bc000a1b79f000900e000940032000a01be00b6
:100bd0000300780082007800cb0307000006be0007
:100be0000883e90086003300ffab9700648543006b
:100bf0008c0478000d047800bfb597002fb79700dc
:100c00000b0078008e00780086bf9f00f30007007d
:100c1000000d78000900780088007800ef000700d8
:100c20001005980064054500bfb097002fb09700ed
:100c300001017800800178000b0078008e007800b8
:100c4000140307000002be000c01be00c8b79f00dd
:100c50000900780088007800e4b79f00f5b79f008e
:100c60000c0307000001be006fb29700ffb29700af
:100c70000400be00b101070090b79f0081b79f003c
:100c8000bfb097002fb09700010178008001780075
:100c90000902780088007800040478008104780054
:100ca0000800be00fb020700800478000104780001
:100cb0000c01be000b0278008e007800c4b79f00c4
:100cc000d1b79f004fb09700dfb09700f102070047
:100cd0000902780088017800040478008304780011
:100ce0000801be0096010700800478000104780026
:100cf0000fbb97000603e900410033009fb5970042
:100d00000fb797000b0078008e00780086bf9f0019
:100d1000b2000700000d7800090078008800780014
:100d2000ae0007001005980064054500bfb09700ad
:100d30002fb0970001017800800178000b00780047
:100d40008e007800d30207000002be000c01be0036
:100d5000c8b79f000900780088007800e4b79f00ba
:100d6000f5b79f00cb0207000001be006fb29700ed
:100d7000ffb297000400be007001070090b79f000b
:100d800081b79f00bfb097002fb097000101780096
:100d90008001780009027800880078000404780057
:100da000810478000800be00ba02070080047800c1
:100db000010478000c01be000b0278008e00780060
:100dc000c4b79f00d1b79f004fb09700dfb0970026
:100dd000b002070009027800880178000404780056
:100de000830478000801be005501070080047800e4
:100df000010478000fbb97000603e900bfff3b002a
:100e00007fa897004f0778004f06be004f05be0031
:100e10004f04be006f01b100000006000a01be00d1
:100e20000300780082007800370307000006be0048
:100e30000df0a2006aff37008009020000000000e8
:100e400000000600889fbe008a9fbe008c9fbe00e7
:100e50008e1f78004400f800070f2000270288004a
:100e60003400f800811f78000f07780007f02f008a
:100e70000338e10004003200270280004700b3007d
:100e800027028800a301880019002000804cdd00a3
:100e90001300200002047800800678008904d10045
:100ea000424edd00010578000302e90004800800dd
:100eb000170000008a0546004218dd000902e9001b
:100ec0000480080010000000000000004620c3005d
:100ed0003b025200df35c100080440001381c2000c
:100ee000ab825200264dc5003e85c400bb00cd003c
:100ef000bb80cd003a00ca002a80ca000700c900a2
:100f00000580c900ba00cd00ba80cd000a054600b0
:100f1000020478008301d0008d06e900dfff3c0069
:100f20008e0778004f0078003400f9004400f90083
:100f30004f0778004f06be004f05be004f04be00ad
:100f400000000600811f7800801f7800811f780054
:100f50002207020000000000cf0078004f00780058
:100f6000b8070200000000004f00780000000600f3
:100f70004600f8005000f8000220200032028800ed
:100f800002002800130020008019dd00028171009a
:100f9000820288000100780001017800260020000c
:100fa000470020008301e9000380080007000000db
:100fb0000110e100040034001102be009208780024
:100fc000e2307b000489be0087804000121978005f
:100fd0005000f9004600f90000000600e8874700cd
:100fe000889fbe008a9fbe008c9fbe008e1f780027
:100ff0000005be0002002000037024002502070047
:1010000080047800010478006011b8000a00be0076
:101010009d0107000000e00037003500090078005e
:1010200088007800be010700990107000005be0096
:101030000a00be00b70107000006be000200200043
:1010400003f02300130207000007780081bf9f0010
:10105000010178000e00780082007800b0010700de
:10106000e0b79f00f1b79f000c01be0009027800b5
:101070008800780004037800810378000600be0031
:10108000ae0007000004be000200200003f02300b1
:101090000800be007c0107000000e0007b00340077
:1010a0000200200003f823000c00be00a40007008b
:1010b000770107000005be008a0178000b01780067
:1010c0000300780082007800f3ff2700830f5000b0
:1010d000e08f580002003400f0ff270001002000dc
:1010e0004f0778004f06be004f05be004f04be00fc
:1010f0008f00b10000000600090078008800780029
:10110000ec000700620107000006be000c00be00f4
:10111000800107000005be00090178008801780001
:101120000a00be00860107000000e000090032004e
:101130000200200003f823000a00be007f00070021
:10114000530107000006be000c00be00710107003d
:101150000005be000200200003f023000a00be00cc
:10116000cc0107000007780081bf9f0001017800d3
:101170000e0078008200780069010700e0b79f0048
:10118000f1b79f000a01be000902780088007800cc
:1011900004037800810378000600be0067000700a2
:1011a0000004be000200200003f023000800be007f
:1011b000350107000000e0001700340002002000a5
:1011c00003f823000a00be005d000700300107009d
:1011d0000006be008c0178000d0178000300780045
:1011e0008200780002002800f3ff2f00820f5000d9
:1011f000838f5800baff3d000200be004f07780001
:101200004f06be004f05be004f04be008f00b10068
:1012100000000600b8ff37000200200003f02300a2
:1012200088007800090078000102780080027800c8
:101230000400be00120107000000e000e5ff3a00d4
:101240006fb19700ffb197008e0278000fba970038
:101250000500780084007800380007000001be0017
:10126000370007000a0107000000e000d9ff320044
:101270000200200003f823000a00be00300007002f
:10128000030107000006be00d2ff37000200200065
:1012900003f023008800780009007800010278003c
:1012a000800278000400be00f50007000000e000a6
:1012b00081ff3a006fb19700ffb197008e0278006e
:1012c0000fba970005007800840078001b00070023
:1012d0000001be001a000700ed0007000000e0005a
:1012e00075ff32000200200003f823000c00be004e
:1012f00013000700e60007000005be006eff370080
:101300004400f800040f200024028800811f7800a8
:101310000000e900008008000300000032027800ad
:10132000b30278001301c0003100cd004f007800f7
:101330004400f900000006000000050003f0a200d0
:10134000889fbe008a9fbe008c1f7800390107006d
:10135000400133006450e1004f0032006420e1009e
:101360005200320003826c0007003b000905d000e8
:101370000306d000820f54000c065d000200390005
:10138000020032008901780003067800858255004a
:1013900004003d000003fd008103fd008502ea001a
:1013a0008b854200840f720002003b006000100039
:1013b000e08018006011b8000005eb007a28e10019
:1013c0000a00390006007800c75ddd00f707b200ab
:1013d000878075002d003700828171000a01780036
:1013e000610560008180d1000080d3008502e900a2
:1013f000f9ff3b00060440008784480002003b00e0
:1014000060041400e0841c000988a3000700320077
:101410008a81710082817100610164008904d100b8
:101420000884d3008b05e800170037000978a30073
:1014300013003a000b00e000130034008b05e900b4
:101440000804440089844c000a4474000978a3000d
:101450000d003a000b00e000070034008b05e900a6
:101460000804440089844c0001003a000b0020006d
:101470000978a300f7ff32000001eb0002003700fb
:10148000828171000a017800af0007000cf0a7000c
:1014900001f0a000f80037006420e10002003a00eb
:1014a000838f6c00f80033000801be000200be000c
:1014b000f10037000001eb004a0007000400320091
:1014c0000200200003f8230001f0a6009cff0700a3
:1014d000000006000081eb0022013700889fbe005b
:1014e0008a9fbe008c1f7800d2000700d90033000d
:1014f00003866c006450e1002e0032006420e1009d
:10150000330032006150e1002f0032006120e10021
:101510003100320085855500eb07b000090020003e
:1015200008042000050037000804440089844c00aa
:101530000a0031000603430087834b00000153007b
:1015400081815b00f8ff33000203be000800a000a9
:101550000804440089844c00f6ff3900c639dd00d8
:101560008301730001003200130020008904d100c0
:101570000884d3000998a300050032000800a700e2
:101580000300a0008904d1000884d3008b05e80083
:101590008904d1000884d3000001eb000281d2004d
:1015a0006900070001f0a1000cf0a70001f0a00005
:1015b000b10037006420e100b30032000801be0032
:1015c0000200be00f7ff37006120e100ae003200ec
:1015d0006000b800f3ff37000000200001f827008a
:1015e000f0ff3700889fbe008a9fbe000003be0048
:1015f0007b000700850578008281520002002000f0
:101600006220e10004003a00f307b1000400350055
:101610007718e100040035000600be001400370012
:101620006000b8000f003700f50f2000faff2f0010
:101630008502d1000a85d3008301e900fcff3b004d
:101640008184620000046500890f7400f2ff32009b
:101650008582ea000a85ea00818462000004650050
:101660003900070007f0a70001f0a0000081eb009f
:101670000200e0004f05be004f04be00000006005f
:101680001400200022013700f4ff2f002001370052
:101690000001be00520007000470a70003f0a10083
:1016a0006509b100160032000d0035006828e10020
:1016b00006003500f0ff2f00f1ff27000300e000d7
:1016c00013003b000100280000000500000040005e
:1016d000818048008502e900fcff3a0008003700dd
:1016e000f88f420002003c008000eb000000050083
:1016f0008100d1000080d3008502e800fcff3a00a1
:101700000300e00002003b0060001000e0801800d1
:10171000000006004f89de008201780017013700c3
:101720000001eb00afff07000400320002002000c0
:1017300003f8230001f0a70000ff070000000600e7
:1017400004002000f2003700810020006180550075
:101750000b003d000b00200061fe2f000100e100a6
:101760001d00340082817100610164008904d10090
:101770000884d3000000e800faff3a00710020005e
:101780006100640003007000020060000900320084
:1017900061044400e0844c000988a5000500320083
:1017a0008b05e8006808e10002003a008904d100d6
:1017b0000884d300f20f20000258e10005003d002c
:1017c000c75ddd00f907b200898075000800780068
:1017d000000006000bf827008b00780000000500d1
:1017e000c70ade00f107b200f50fb20008003200b0
:1017f000e1cf4200020032000170a0002400050089
:10180000810f70000100320004080500440005004b
:10181000810f700002003a00140005008502e90003
:101820000000400081c04800fcff3b000170a000a8
:10183000240005000004be00e9ff07000003be000d
:101840000405be000200be00e5ff0700844f7500de
:10185000000006000200be006450e10005003600f2
:101860006420e100020036000968a30001003a008c
:101870000800be000160a0004f0678004f05be00c2
:101880004f04be0000000600f0ff2f00f1ff27000c
:10189000f9ff3700889fbe008a9fbe008c1f78002a
:1018a000e4ff0700ebff330003866c006450e100a7
:1018b000240032006420e100270032006150e10082
:1018c000220032006120e100210032008b854200bd
:1018d000eb07b1000134b800003ab8000804420038
:1018e00089844a00013ab8000030b800888040007e
:1018f00009014a00040033000000400081804800d4
:10190000020149008b05e900c909dd00830170006f
:101910000100320013002000c814de004814dd006e
:101920004709de001200b200c808de00088470001b
:1019300085ff070001f0a1000cf0a70001f0a00056
:10194000cdff37006120e100cfff32000801be006b
:101950000200be00f7ff37006150e100fcff3a00d3
:10196000c9ff3700889fbe008a9fbe008c9fbe00c3
:10197000820578000004be0099ff07000800be0041
:101980006420e1000700390002003a00f1ff27005f
:10199000f0ff2f000160a0001202200052408800da
:1019a000550037006120e10003003a000b00a7005a
:1019b00001f823005000370001f0a10002002100cf
:1019c000936424002eff07000800be0004003500c9
:1019d000b2fd2000930c2400a70007000004be0005
:1019e0000005eb000b00a6004f0dde0001f0a1008a
:1019f0000004be0032982f0023ea2300a5ff070051
:101a00000001eb0003f023000b00a70003f8230004
:101a10004bfe07001eff07000000a7000a00a200ff
:101a20003cff07000b00e000030032000200200032
:101a300003f0230041fe070001f0a2000006be00f3
:101a4000020020009304240092ff07000801be005a
:101a50003bfe0700809fbe000c00be0022a22a00b1
:101a6000d3a723008bff07004f01be0034fe070001
:101a70000004be0001f0a100020020000398230032
:101a8000fffe07000800be00190035000001be007f
:101a900080ff07000006be00b2c52900e3622300f4
:101aa0007cff070022222b00f3942b0024fe07006a
:101ab0000c01be0077ff0700e273280083c02300fb
:101ac0001ffe07000c01be0072ff070042aa2a0099
:101ad000a3e22b001afe07000c01be006dff0700f9
:101ae0000801be006bff07000801be0014fe0700de
:101af0000a00a70001f0a2004f06be004f05be007d
:101b00004f04be00000006000001eb0095ff370007
:101b1000889fbe008a9fbe00841f780045ff070093
:101b20004f00780011003300f0ff2f00838f6c000e
:101b300006003b00040565000a00a7000800370006
:101b400009f0a6001000200008003700820f5400a2
:101b5000838f5c00030039001000200001003e006c
:101b60000000200009f0a7000000ea004f05be00b9
:101b70004f04be000000e00000000600881f78004f
:101b8000030478000300e00007003d00600010003f
:101b9000e080180060011900e081190002003b009c
:101ba00001f02d00030037000400070008f0a70033
:101bb00001f0a0004f04780000000600889fbe00de
:101bc0008a9fbe00008270000402710004827100ce
:101bd000260032000004be000200be006011b80002
:101be0006b092000950220000182cf000a00390015
:101bf0000541b1000082cf00070039000541b10066
:101c00000982cf00040039000541b1000882cf00ed
:101c1000010039000541b1000542520012003200b6
:101c20000a003b0082817100610164008100d100e3
:101c30000080d3008984d3000884d3008b05e8009a
:101c40000442e800f7ff3a000700370008044400a8
:101c500089844c0000004800818048008b05e90021
:101c60000442e900f9ff3a00b7fe07004f05be0045
:101c70004f04be00000006000400200000003700f2
:101c8000889fbe008a9fbe008c1f78004f26dd0013
:101c9000e8fe0700effe33006120e1004300320060
:101ca0006250e10041003e003e0039006420e10046
:101cb0003c003200058255000f003b000402e800a2
:101cc00038003a00800f5300818f5b0035003400ec
:101cd0000800be0003f0a10001f0a60003f0a00080
:101ce0000cf0a70096fd0700e3fe37000603430053
:101cf00087834b000c4646000005530081855b003e
:101d0000020033000a03be000c00a0000402e90038
:101d1000f6ff3b00850578000602430087824b00f2
:101d200004003a006000b80009f0a70001f0a0002c
:101d3000d1fe37000002520081825a000704e00001
:101d4000040033000603430087834b008b05e90042
:101d5000faff3700090578000604be000203be0042
:101d60006011b80078fe0700e00f5200e08f5a00c3
:101d70000700350002003c000c08a30004003200fc
:101d80000601be0003f0a0000cf0a7006cfd0700e8
:101d90000a85680001f0a1000af0a70001f0a00088
:101da000b5fe37000800be00b3fe37001002200069
:0c1db0000cf0a60050408800b3fe370085
:020000040000fa
:101dbc000600fa00100798002107980081e2a9009c
:101dcc0007e2a90007a2a9000762a9000742a9001f
:101ddc000722a8000702a90000112000201088008b
:101dec00e442a800e462a8000070200000148800ff
:101dfc00f00020001014880010002000401488000f
:101e0c0010002000601488009e0090004140880063
:101e1c001e009000ae009000010878002e0090008b
:101e2c0001102000808040001e00900011009800de
:101e3c002e00900001202000808040001e009000a9
:101e4c00210098002e00900001302000808040007e
:101e5c001e009000310098000000eb00000f78008d
:101e6c00070037001e00780000004000ae00900014
:101e7c00008040008000eb00010878001e0fe80095
:101e8c00f01f20009e007800808f5000f5ff34007a
:101e9c000080fa00000006000200fa00000f780033
:101eac001e0078008000eb00110898001e007800de
:101ebc0010089000800078000100a0001e0078003f
:101ecc00110898001e00780010089000800078001f
:101edc000110a0001e007800110898001e00780068
:101eec0010007800800078001e00780071009800c7
:101efc001e00780020009000800078001e00780002
:101f0c00010898001e0078008000eb00410098004a
:101f1c001e007800f1072000510098001e00780088
:101f2c00f1072000610098001e0078000008900066
:101f3c0010007800c014880007e2a8008b80a9006c
:101f4c009b80a8001106800080ff2f00008060009d
:101f5c000020a0001006880081e2a8000080fa0092
:101f6c00000006000200fa00000f780081e2a900d0
:101f7c009b80a9000080fa00000006000a00fa000d
:101f8c002007980031079800420798002e00900017
:101f9c0010089000640060000000e00004003a00ab
:101fac002e00900090009000010f78000200370086
:101fbc002e009000100f7800ce009000000820003a
:101fcc00808f500002003400000820004007980069
:101fdc000000eb00100798000c0037001e0090006a
:101fec0000004000be009000808040001e00900069
:101ffc00000040001e0040001000780080087800af
:10200c001e0090000000e800100798009e00900051
:10201c004e009000808f5000f0ff35000400fc0053
:10202c002e00900010089000800078000100a000a5
:10203c002e009000110898000000fc000080fa00af
:10204c00000006000200fa00000f78001e00780065
:10205c00100890006200600000f0a7000000ea0089
:10206c000000ea004f00de000080fa0000000600cd
:10207c000200fa00000f78001e0078001008900093
:10208c006100600000f0a7000000ea000000ea0018
:10209c004f00de000080fa00000006000a00fa0083
:1020ac002007980031079800420798002e009000f6
:1020bc0010089000640060000000e00004003a008a
:1020cc002e009000b0009000010f78000300370044
:1020dc002e009000a0009000010f7800ce00900020
:1020ec0000082000808f50000200340000082000ff
:1020fc00400798002e009000ce00900061009800e0
:10210c000000eb00100798000c0037001e00900038
:10211c00000040009e0040001e00900000004000a7
:10212c003e0190000000410010007800800878000b
:10213c001e0090000000e800100798009e00900020
:10214c004e009000808f5000f0ff35000400fc0022
:10215c002e00900010089000800078000110a00064
:10216c002e009000110898000000fc000080fa007e
:10217c00000006000800fa001007980021079800dc
:10218c00320798003e00900010007800000f780095
:10219c001e40900061406000104798002e00900097
:1021ac0000004000200798001e4090000080fb00bb
:1021bc00ae00900001007000200798000602a800f5
:1021cc000000000030108000610060000000e000a2
:1021dc00fcff3a00400320001010880000000000b3
:1021ec004110800000002400008060000000e0002e
:1021fc00fbff3a00411080000000280000806000c6
:10220c000000e000080032000642a80000000000b8
:10221c0030108000640060000000e000fcff3a0019
:10222c000080eb00320037002e0090001010880068
:10223c0000000000411080000000240000806000bd
:10224c000000e000fbff3a00411080000000280075
:10225c00008060000000e000080032000642a80088
:10226c000000000030108000640060000000e000fe
:10227c00fcff3a000080eb001d0037001e40780088
:10228c000080fb001010880000000000411080004e
:10229c0000002400008060000000e000fbff3a001a
:1022ac004110800000002800008060000000e00069
:1022bc00080032000642a800000000003010800028
:1022cc00640060000000e000fcff3a000080eb00be
:1022dc00070037000642a800000000003010800004
:1022ec00640060000000e000fcff3a0010002000d9
:1022fc000080fa00000006000600fa002007980093
:10230c0010002000100798000e80e80000017800f3
:10231c008000eb002e00900096ff0700000f780065
:10232c001e007800e10f400001003a00ffff37006b
:10233c00f0062000100798000e80e80000017800dd
:10234c00110020002e0090008aff07001e0078006c
:10235c00e10f400001003a00ffff37005001200060
:10236c00100798000e80e800000178002100200082
:10237c002e0090007fff07001e007800e10f400048
:10238c0001003a00ffff370090082000100798006a
:10239c000e80e80000017800310020002e00900033
:1023ac0074ff07001e007800e10f400001003a00a6
:1023bc00ffff370080012000100798000e80e80016
:1023cc0000017800410020002e00900069ff0700fa
:1023dc001e007800e10f400001003a00ffff3700bb
:1023ec00901a2000100798000e80e8000001780079
:1023fc00610020002e0090005eff07001e00780098
:10240c00e10f400001003a00ffff3700a000200060
:10241c00100798000e80e800000178007100200081
:10242c002e00900053ff07001e007800e10f4000c3
:10243c0001003a00ffff3700400020001007980011
:10244c000e80e80000017800810020002e00900032
:10245c0048ff07001e007800e10f400001003a0021
:10246c00ffff370080102000100798000e80e80056
:10247c0000017800e10020002e0090003dff0700d5
:10248c001e007800e10f400001003a00ffff37000a
:10249c0000042000100798000e80e800000178006e
:1024ac00b10120002e00900032ff07001e007800c2
:1024bc00e10f400001003a00ffff37005000200000
:1024cc00100798000e80e80000017800c101200080
:1024dc002e00900027ff07001e007800e10f40003f
:1024ec0001003a00ffff3700f003200010079800ae
:1024fc000e80e80000017800d10120002e00900031
:10250c001cff07001e007800e10f400001003a009c
:10251c00ffff3700d0072000100798000e80e8005e
:10252c0000017800e10120002e00900011ff07004f
:10253c001e007800e10f400001003a00ffff370059
:10254c0000102000100798000e80e80000017800b1
:10255c00e10120002e00900006ff07001e0078000d
:10256c00e10f400001003a00ffff3700800120001e
:10257c00100798000e80e80000017800410220004e
:10258c002e009000fbfe07001e007800e10f4000bb
:10259c0001003a00ffff3700c00020001007980030
:1025ac000e80e80000017800510220002e009000ff
:1025bc00f0fe07001e007800e10f400001003a0019
:1025cc00ffff370030092000100798000e80e8004c
:1025dc0000017800610220002e009000e5fe07004b
:1025ec001e007800e10f400001003a00ffff3700a9
:1025fc00900e2000100798000e80e8000001780073
:10260c00710220002e009000dafe07001e007800f8
:10261c00e10f400001003a00ffff370040002000ae
:10262c00100798000e80e80000017800c10220001d
:10263c002e009000cffe07001e007800e10f400036
:10264c0001003a00ffff37000000eb001007980074
:10265c000e80e80000017800f10220002e009000ae
:10266c00c4fe07001e007800e10f400001003a0094
:10267c00ffff370010002000100798000e80e800c4
:10268c0000017800810320002e009000b9fe0700a5
:10269c001e007800e10f400001003a00ffff3700f8
:1026ac000080fa00000006000600fa0020079800df
:1026bc0010002000100798000e80e8000001780040
:1026cc008000eb002e009000aafe0700000f78009f
:1026dc001e007800e10f400001003a00ffff3700b8
:1026ec00f0062000100798000e80e800000178002a
:1026fc00110020002e0090009efe07001e007800a6
:10270c00e10f400001003a00ffff370050012000ac
:10271c00100798000e80e8000001780021002000ce
:10272c002e00900093fe07001e007800e10f400081
:10273c0001003a00ffff37009008200010079800b6
:10274c000e80e80000017800310020002e0090007f
:10275c0088fe07001e007800e10f400001003a00df
:10276c00ffff370080012000100798000e80e80062
:10277c0000017800410020002e0090007dfe070033
:10278c001e007800e10f400001003a00ffff370007
:10279c0090162000100798000e80e80000017800c9
:1027ac00610020002e00900072fe07001e007800d1
:1027bc00e10f400001003a00ffff370060002000ed
:1027cc00100798000e80e8000001780071002000ce
:1027dc002e00900067fe07001e007800e10f4000fd
:1027ec0001003a00ffff370040002000100798005e
:1027fc000e80e80000017800810020002e0090007f
:10280c005cfe07001e007800e10f400001003a005a
:10281c00ffff370080012000100798000e80e800b1
:10282c0000017800410220002e00900051fe0700ac
:10283c001e007800e10f400001003a00ffff370056
:10284c00c0002000100798000e80e80000017800fe
:10285c00510220002e00900046fe07001e0078005a
:10286c00e10f400001003a00ffff37003009200063
:10287c00100798000e80e80000017800610220002b
:10288c002e0090003bfe07001e007800e10f400078
:10289c0001003a00ffff3700900e2000100798004f
:1028ac000e80e80000017800710220002e009000dc
:1028bc0030fe07001e007800e10f400001003a00d6
:1028cc00ffff370040002000100798000e80e80042
:1028dc0000017800c10220002e00900025fe0700a8
:1028ec001e007800e10f400001003a00ffff3700a6
:1028fc000000eb00100798000e80e8000001780043
:10290c00f10220002e0090001afe07001e00780035
:10291c00e10f400001003a00ffff370010002000db
:10292c00100798000e80e800000178008103200059
:10293c002e0090000ffe07001e007800e10f4000f3
:10294c0001003a00ffff37000080fa00000006008b
:10295c000800fa0020079800310798002ca3a80063
:10296c00c6a2a900caa2a8006000b800008fbe00d1
:10297c0005003700000000001200200003002000ba
:10298c001e0f41005e974900f0ff2100010020005e
:10299c001e01be00800f5100818f5900f5ff3400dd
:1029ac00ae0190003340880030408000be009000a3
:1029bc00010878004382a9004362a9004342a900a0
:1029cc004322a8004302a80042c2a90042a2a800c8
:1029dc0042e2a9001112800030fe2f00008060003e
:1029ec008001b3001012880011128000c0ff2f006c
:1029fc00008060000010a0001012880045e2a900c1
:102a0c002c43a800c642a900ca42a80041a2a900b2
:102a1c001e21ef001421ef0000322000d0088800a6
:102a2c008760a9009760a8000080fa0000000600eb
:102a3c000200fa00000f78009540a80041e2a800bf
:102a4c001e0078008000eb00210098001e0078002a
:102a5c008000eb00110098001e0078008000eb0055
:102a6c00410098001e0078008000eb0031009800b7
:102a7c00ca42a8000080fa00000006000200fa001a
:102a8c00000f78001e007800a000900000022000cb
:102a9c00008060000000e000020032001000200006
:102aac00270037001e0078002000900070006000a6
:102abc000000e0000200320010002000200037006f
:102acc00ca42a900500020004012880000000000fb
:102adc001e00780020009000680060000000e000fc
:102aec00fbff32001e007800a000900070ff2f004a
:102afc00808060001e007800210098004822ef00c2
:102b0c00000000001e0078002000900068006000ab
:102b1c000000e000fbff32001e007800a0009000d7
:102b2c0070ff2f00808060001e007800210098004c
:102b3c00ca42a8001e0078001000900061006000de
:102b4c000080fa00000006000e00fa002007980032
:102b5c0032079800430798005107980064079800c3
:102b6c002e0090001000780010079800ee009000e6
:102b7c0000082000808f5000020034000008200064
:102b8c00600798000000eb00000f78000900370088
:102b9c001e0078009e009000008040009e0078008f
:102bac005e0190008100410091407800014878005e
:102bbc001e0fe8006e0090009e007800808f500081
:102bcc00f3ff35002e00900020009000800078006c
:102bdc000150a0002e009000210098002e009000c3
:102bec00ee009000310098002e0090003e01900005
:102bfc00ce01900062009800730098002e009000a7
:102c0c008000eb00410098002e0090009000900096
:102c1c0080ff2f00808060002e0090001100980033
:102c2c00ca42a900f00a2000401288000080fa0075
:102c3c00000006000e00fa00889fbe0020079800d6
:102c4c0032079800430798005107980064079800d2
:102c5c003e019000ce01900000002000f10f2000fa
:102c6c0002027800030178008001780001007800ee
:102c7c0003026200000061008000eb00c000dd0078
:102c8c00000020000001be006120b80000017100ae
:102c9c0081817100409cde00cf9cde00084f7800e3
:102cac003e019000ce01900000f02f0001002000aa
:102cbc00020278000301780080017800010078009e
:102ccc0003026200000061008000eb00c000dd0028
:102cdc00000020000001be006120b800000171005e
:102cec0081817100c818dd004813de000683700076
:102cfc00c89bde00164798003e00900020479800c5
:102d0c00ee00900000082000808f5000040034007a
:102d1c002e009000010820003100980003003700bd
:102d2c002e009000ee00900031009800de00900024
:102d3c002e009000510098002e0090008000eb00b7
:102d4c0041009800ca42a9003000200040128800bf
:102d5c00000000002e009000200090006800600031
:102d6c000000e000fbff32002e009000a00090005d
:102d7c0070ff2f00808060002e00900021009800d2
:102d8c001e00fb0040128800000000002e00900086
:102d9c0020009000680060000000e000fbff3200a3
:102dac002e009000a000900070ff2f00808060002b
:102dbc002e009000210098001e4090000000fb00a7
:102dcc0040128800000000002e00900020009000af
:102ddc00680060000000e000fbff32002e00900055
:102dec00a000900070ff2f00808060002e009000eb
:102dfc00210098002e4090000000fb00401288003b
:102e0c00000000002e009000200090006800600080
:102e1c000000e000fbff32002e009000a0009000ac
:102e2c0070ff2f00808060002e0090002100980021
:102e3c004822ef002e0090002000900080007800c7
:102e4c000140a0002e009000210098004f04be000d
:102e5c000080fa00000006001000fa0050079800ed
:102e6c0061079800720798006e009000e90f5000ff
:102e7c0044003a00fe00900011079800ca42a900d5
:102e8c002005200040128800000000005e00900029
:102e9c0020009000680060000000e000fbff3200a2
:102eac005e009000a000900070ff2f0080806000fa
:102ebc005e009000210098001e0090000080e80049
:102ecc00104078000000fb00401288000000000059
:102edc005e00900020009000680060000000e000a0
:102eec00fbff32005e009000a000900070ff2f00ee
:102efc00808060005e009000210098001e00900011
:102f0c000000e800104078000000fb004012880030
:102f1c00000000005e00900020009000680060003f
:102f2c000000e000fbff32005e009000a00090006b
:102f3c0070ff2f00808060005e00900021009800e0
:102f4c001e009000104078000000fb00401288002a
:102f5c00000000005e0090002000900068006000ff
:102f6c000000e000fbff32005e009000a00090002b
:102f7c0070ff2f00808060005e00900021009800a0
:102f8c00ca42a8006e009000e20f500042003a00c6
:102f9c00fe00900021079800ca42a90000092000f9
:102fac0040128800000000005e009000200090009d
:102fbc00680060000000e000fbff32005e00900043
:102fcc00a000900070ff2f00808060005e009000d9
:102fdc00210098000000eb00000f78000e00370075
:102fec004822ef00000000005e00900020009000de
:102ffc00680060000000e000fbff32005e00900003
:10300c00a000900070ff2f00808060005e00900098
:10301c00210098001e0fe8001e007800e20f5000ff
:10302c00efff34000000eb00000f780015003700b4
:10303c004822ef00000000005e009000200090008d
:10304c00680060000000e000fbff32005e009000b2
:10305c00a000900070ff2f00808060005e00900048
:10306c00210098001e007800ae0090000080400007
:10307c00de009000910090008140780001487800bb
:10308c001e0fe8001e007800e30f5000e8ff34002c
:10309c00ca42a800890037006e009000e30f500070
:1030ac0025003a00fe00900031079800ca42a900a2
:1030bc005000200040128800000000005e009000cc
:1030cc0020009000680060000000e000fbff320070
:1030dc005e009000a000900070ff2f0080806000c8
:1030ec005e009000210098004822ef0000000000d4
:1030fc005e00900020009000680060000000e0007e
:10310c00fbff32005e009000a000900070ff2f00cb
:10311c00808060005e009000210098005e009000ae
:10312c0010009000804078003e009000014878002c
:10313c00ca42a800610037006e009000ea0f5000f0
:10314c0011003a00ca42a900000520004012880074
:10315c00000000005e0090002000900068006000fd
:10316c000000e000fbff32005e009000a000900029
:10317c0070ff2f00808060005e009000210098009e
:10318c00ca42a8004d0037006e009000e40f5000ba
:10319c0011003a00ca42a9006000200040128800c9
:1031ac00000000005e0090002000900068006000ad
:1031bc000000e000fbff32005e009000a0009000d9
:1031cc0070ff2f00808060005e009000210098004e
:1031dc00ca42a800390037006e009000e50f50007d
:1031ec0023003a00fe00900041079800ca42a90053
:1031fc001000200040128800000000005e009000cb
:10320c0020009000680060000000e000fbff32002e
:10321c005e009000a000900070ff2f008080600086
:10322c005e009000210098004e0090001040780045
:10323c000000fb0040128800000000005e009000bf
:10324c0020009000680060000000e000fbff3200ee
:10325c005e009000a000900070ff2f008080600046
:10326c005e00900021009800ca42a80013003700ad
:10327c006e009000e10f500010003a00ca42a90005
:10328c000006200040128800000000005e00900044
:10329c0020009000680060000000e000fbff32009e
:1032ac005e009000a000900070ff2f0080806000f6
:1032bc005e00900021009800ca42a8000080fa002d
:1032cc00000006000400fa0090022000303a88004a
:1032dc00213a8000f0f32f0000806000203a880033
:1032ec00213a800000fe2f0000806000203a880008
:1032fc004827ef001200200080072000a1092000c1
:10330c003374200080497800814978008249780024
:10331c00120020006004200071052000237420009e
:10332c0080497800814978008249780000000000cb
:10333c00113a80000000270080806000000021000e
:10334c00808f5000faff3a0000000000113a800014
:10335c0000022000008060000000e000fbff320053
:10336c00280107002040800001b0200090fa0700df
:10337c0020408000c8fa070020408000cafc0700eb
:10338c000001eb000190200070002000eaf507001e
:10339c001200200001a0200070002000e6f50700bc
:1033ac0000702400800078000008200096f50700cb
:1033bc000000eb00000f78000000eb0010079800f5
:1033cc00000000002040800029fb07000000e00006
:1033dc00fcff3a00204080000208200001f0200091
:1033ec00e6fa07000000eb00000f78000b00370036
:1033fc001e0078008000400000f02000008040009b
:10340c00900078001e0078004201dd00004024008e
:10341c0000004100010878001e0fe800f0072000b2
:10342c009e007800808f5000f1ff34000360240070
:10343c000260240001602400000820007bf60700d5
:10344c000000eb00000f7800120037001e0078001f
:10345c00c200dd0000402400008040001000780015
:10346c008080d1001e0078004201dd000040240065
:10347c0000004100010878001e007800c200dd0049
:10348c0020402400008040008000eb000108780000
:10349c001e0fe800f00720009e007800808f50007f
:1034ac00eaff340003f02f000290200001402400ba
:1034bc007000200060f6070001402400700020001e
:1034cc00a8f6070000082000000f78000c00370059
:1034dc00e2fc2f009e0041001e0078004201dd003e
:1034ec0000402400000041004209dd00014024009e
:1034fc008100410031187800211078001e0fe9007e
:10350c00200320009e007800808f5000f0ff3c00cc
:10351c000000eb00000f78000d0037001e00780053
:10352c00c200dd0020402400008040008000eb0041
:10353c00010878001e007800c200dd000040240065
:10354c00008040008000eb00010878001e0fe800ae
:10355c00100320009e007800808f5000efff340095
:10356c0003f02f0002a02000014024007000200076
:10357c0071f607000000eb00000f78000c0037001c
:10358c001e007800c200dd000040240000804000d6
:10359c0010007800c800dd001e007800000140001b
:1035ac0000f0200000004100010878001e0fe80028
:1035bc00f00720009e007800808f5000f0ff340050
:1035cc0000000000204080009efa07000000e00090
:1035dc00fcff3a00204080000208200001f020008f
:1035ec00aefa070072ff3700800278000103780002
:1035fc00820378000700e0001e00340035007800dc
:10360c000300280083006000c808de0000f0a7005b
:10361c000000ea00b3f727000300e10001003900c5
:10362c000300780043082000030040000081cf0015
:10363c000b003100930020000281510001003b007f
:10364c000001eb00e30141000302de00f300200067
:10365c00030262004411dd000202720001027200da
:10366c000480ea00f00fb200005b78008703e900e9
:10367c00e2ff3a00000006008002780001037800a7
:10368c00820378000700e000150034003540780014
:10369c000080ea000308200083006000030720007c
:1036ac00030160004411de000281e800f3002000f9
:1036bc0003026000700272000402d0000402e800f1
:1036cc000222dd0043082000030252000170a70013
:1036dc000402ea00041b78008703e900ebff3a00c0
:1036ec000000060080027800010378008203780055
:1036fc000700e00023003400350078000000e000f3
:10370c0002003a00500520001b003700030028007f
:10371c0083006000c808de0000f0a7000000ea008b
:10372c00f3ff27000300e1000100390003007800db
:10373c000081cf00060031006910e10004003d005b
:10374c009300200002815100e30141000200370088
:10375c000001eb00430020000302de00f300200018
:10376c00030262004411dd000202720001027200c9
:10377c00530d200003406a00005b78008703e900ca
:10378c00ddff3a000000060080027800010378009b
:10379c00820378000700e000190034000000eb0001
:1037ac0035407800530d200000c06900030820004c
:1037bc008300600003072000030160004411de0059
:1037cc006f0260004422dd00680042000200e0004d
:1037dc000200320003102000030040006110e100e1
:1037ec00020034000201e9000200dd000170a700b4
:1037fc000000ea00001b78008703e900e7ff3a00ad
:10380c00000006000000fa00cda2a900cde2a9003c
:10381c00cdc2a900d1a2a800d1e2a800d1c2a800b3
:10382c00d302a800d322a800e402a900e422a90034
:10383c00e802a900e822a9000028ef000228ef0006
:10384c000080fa00000006000200fa00a1168000b9
:10385c0000102000008060000000e0000a003a0028
:10386c00004080000000e80000408800004080001c
:10387c00ec0f500007003a000028ef001000200069
:10388c00000f7800030037000028ef000000eb0069
:10389c00000f78001e0078000080fa00000006007f
:1038ac000200fa00a11680000020200000806000b9
:1038bc000000e0000a003a00104080000000e80020
:1038cc001040880010408000ec0f500007003a00b8
:1038dc000228ef0010002000000f780003003700d2
:1038ec000228ef000000eb00000f78001e007800ab
:0838fc000080fa000000060044
:020000040000fa
:10390400000b00001405000000000000004400004b
:10391400000200000000000000460000000100005a
:103924000000000000090000000200000000000088
:103934000408000002000000020000000010000063
:103944000008000004000000000000000608000059
:10395400020000000000000008080000020000004f
:10396400000000000a08000002000000000000003f
:04397400000000004f
:020000040000fa
:0200000401f009
:04000800ffff0000f6
:020000040000fa
:0200000401f009
:04000c00f8ff0000f9
:020000040000fa
:0200000401f009
:040010007bff000072
:020000040000fa
:0200000401f009
:040014007fff00006a
:00000001FF
